:020000040800F2
:1000000020FB01209D01000821830008A7010008B2
:100010005D7E0008CD240008910C0108000000005E
:100020000000000000000000000000008D990008A2
:100030009136000800000000D9840008B5010008CE
:10004000B7010008B7010008B7010008B7010008B0
:10005000B7010008B7010008B7010008AD3B000870
:10006000B7010008B7010008B7010008B701000890
:10007000B7010008B7010008B7010008B701000880
:10008000B7010008B7010008B7010008B701000870
:10009000B7010008B7010008B7010008B701000860
:1000A000B7010008B7010008B7010008B701000850
:1000B000BDAB0008C5AB000889AE0008B701000859
:1000C000B7010008B7010008B7010008B701000830
:1000D000B7010008F5B7000809BB0008D9BC000843
:1000E000B7010008B7010008B7010008B701000810
:1000F000B7010008B7010008B7010008B701000800
:10010000B7010008B7010008E9AF0008CD8F00086B
:1001100001B60008B7010008B701000869B000087F
:10012000B7010008B7010008B7010008B7010008CF
:10013000B7010008B7010008B7010008B7010008BF
:10014000B7010008B7010008B7010008B7010008AF
:10015000B7010008B7010008B7010008A9BE0008F0
:10016000B7010008B7010008A1840008A1840008B5
:10017000A1840008A1840008B7010008B7010008A5
:10018000B7010008DFF810D000F002FE0048004779
:10019000D15E0108AFF3008020FB012006488047B4
:1001A00006480047FEE7FEE7FEE7FEE7FEE7FEE75C
:1001B000FEE7FEE7FEE7FEE759AB00088501000811
:1001C00010B5431A934209D28318881803E010F837
:1001D000011D03F8011D521EF9D210BD40EA0103B2
:1001E0009B0703D009E008C9121F08C0042AFAD2ED
:1001F00003E011F8013B00F8013B521EF9D210BD9B
:10020000D2B201E000F8012B491EFBD27047002258
:10021000F6E710B513460A4604461946FFF7F0FF05
:10022000204610BD30B505462A460B4612F8010B94
:1002300013F8014B08B1A042F8D01CB1002802D03D
:100240006D1CF1E7284630BD10B5044604E00B787C
:1002500000F8013B03B1491C521EF8D2204610BDE4
:10026000421C10F8011B0029FBD1801A704710B501
:10027000002200E0521C835C8C5CA34201D1002B65
:10028000F8D1D8B2E1B2401A10BDCBB203E0017888
:10029000994203D0401C521EF9D20020704730B55D
:1002A00004460020034600E05B1C934203D2E05C5E
:1002B000CD5C401BF8D030BD034611F8012B00F88F
:1002C000012B002AF9D11846704730B505460020A9
:1002D000034600E05B1C934205D2EC5CC85C201A2C
:1002E00001D1002CF6D130BD70B5064612F0AAFA45
:1002F000046805460A220021304600F013FC2C60F9
:1003000070BDF0B480EA0102D40F4200B2EB410F9D
:1003100002D20246084611464A0042D0C30DDDB261
:10032000C1F3C752AD1A202D35DAC1F3160141F4DD
:10033000000204B15242C5F1200602FA06F12A4138
:100340001044B3EBD05F23D0C4B1012DA0EBC35058
:1003500009DCF0BC4FF0004202EAC352DBB200F508
:10036000000000F020BC400000F1807000EBC350A2
:10037000A0F1807040EAD170490009E0490841EAE3
:10038000C071A0EBC35000F50000400800EBC35063
:10039000F0BC00F0FFBB6142012202EB4101001BF7
:1003A000F6E7F0BC704781F00041AAE780F000401A
:1003B000A7E780EA010210B502F00043400022D016
:1003C0004A001FD0010E01EB1261C0F35600C2F3C8
:1003D000560240F4000042F40002A0FB0220000498
:1003E0007F39140400D0401C50EA124001D4400070
:1003F000491EC2B20C0604EBD010401C4008802AF3
:1004000002D003E0002010BD20F00100002900DA36
:100410000020184310BD30B480EA010202F000450C
:1004200030F0004221F0004013D090B1C30DD40D44
:10043000C2F31601C0F31600E41A41F4000140F4BF
:1004400000027D34914201D3641C00E04900002C7D
:1004500002DA30BC002070474FF4000000239142C4
:1004600001D3891A034340084FEA4101F7D151B142
:10047000914202D14FF0004105E002D24FF001015C
:1004800001E06FF0010103EBC450284430BC00F0E0
:1004900081BB2DE9FE4F804681EA0300C00F0C4668
:1004A000009021F0004123F00045B8EB0200A94183
:1004B00005D24046214690461C460B46024623F094
:1004C0000040104347D0270DC7F30A00C3F30A5179
:1004D0000290401A019040286BDAC3F3130040F4F5
:1004E000801B0098924620B10023D2EB030A63EBF5
:1004F0000B0B01985946C0F14002504600F093FAA8
:1005000006460D4650465946019A00F0ABFA10EBEC
:1005100008006141002487EA115284EAE7731A4314
:1005200040D0009A62B3019A012A4FEA075215DCC3
:10053000001B61EB02014FF0004202EA0752CDE9D5
:100540000042001C41F5801132462B4600F068FB4A
:1005500003B0BDE8F08F40462146F9E7001B61EB90
:100560000201001C41F5801300185B412018A2F520
:10057000001747EB030140EAD570B6196D4111E051
:100580006D084FEA360645EAC0754FEA0752001B70
:1005900061EB0201001C41F5801149084FEA30006F
:1005A0000019514132462B4603B0BDE8F04F00F030
:1005B00028BB0098012240000023D0EB020263EB2D
:1005C000E073009821464FEAE074B8EB000061EB5D
:1005D0000401E9E783F000435BE781F0004158E75D
:1005E0002DE9FE4F81EA030404F0004421F00041AC
:1005F00000944FF0000B23F0004350EA01045ED05A
:1006000052EA03045BD0C3F30A54C1F30A552C44E5
:10061000A4F2F3340194A0FB0254C1F3130141F49A
:100620008011C3F3130343F4801301FB024400FB66
:10063000034E840A970A44EA815447EA8357A4FB8D
:10064000076802958D0A05FB07854FEA932C04FB8A
:100650000C542705029D4FEA065847EA1637B5EBBA
:1006600008056EEB070C870E920E47EA811742EAE7
:100670008312A7FB0201B6EB0B0164EB00042B0D08
:1006800043EA0C335E1844EB1C50DA465146E7FB54
:100690000201C5F313044FEA0B3343EA14534FEA44
:1006A0000432019C43EA0603A4F10C040294009C6A
:1006B000CDE900B400F0B4FA03B0BDE8F08F00203B
:1006C0000146F9E72DE9F04D81EA030404F0004BFF
:1006D00021F0004514464FF0000A23F0004150EA93
:1006E000050220D054EA01021DD0C5F30A57024684
:1006F000C5F31303C1F31300C1F30A5640F4801588
:1007000043F48013A7EB0608101BD64608F2FD3809
:1007100073EB050002D308F1010801E092185B4178
:10072000B8F1000F03DA00200146BDE8F08D00208B
:100730004FF48011064684460EE0171B73EB050745
:1007400005D3121B63EB050306434CEA010C490871
:100750004FEA300092185B4150EA0107EDD152EAAE
:10076000030012D082EA040083EA0501084305D0A1
:10077000101BAB4106D20122002306E000224FF0FD
:10078000004302E06FF0010253101AEB06004CEB3D
:10079000085110EB0A0041EB0B01BDE8F04D00F0F1
:1007A00030BA96230022114600F0FDB90EB5C10FF4
:1007B00080EAE0700844CA07002140F233438DE824
:1007C0000E000A460B4600F02BFA03B000BD0EB532
:1007D00040F2334102910021CDE900110A460B4657
:1007E00000F01EFA03B000BD00F0004220F000400F
:1007F000C10DC0F3160040F400007F2901DA00208B
:100800007047962903DCC1F19601C84001E0963992
:100810008840002AF4D04042704720F00040C10DCB
:10082000C0F3160040F400007F2901DA0020704771
:10083000962903DCC1F19601C8407047963988407B
:10084000704770B5C1F30A5201F000450024C1F3AE
:10085000130140F2FF3341F480119A4201DA002083
:1008600070BD40F233439A42A2F2334203DC52425B
:1008700000F0E8F800E090402C43F1D0404270BD19
:10088000C1F30A5210B5C1F3130140F2FF3341F432
:1008900080119A4201DA002010BD40F233439A429F
:1008A000A2F2334203DC524200F0CCF810BD90407B
:1008B00010BD00F0004230F000400AD0C10D01F53B
:1008C0006071C0F3160042EA0151C20840071143AB
:1008D000704700200146704730B5041E71F10004D6
:1008E00004DB4FF00044404264EB0101141E73F13D
:1008F000000405DB1C464FF00043524263EB040347
:100900008B4208BF824230BD30B5041E71F1000435
:1009100004DB4FF00044404264EB0101141E73F10C
:10092000000405DB1C464FF00043524263EB040316
:10093000994208BF904230BD01F0004330B421F02D
:10094000004150EA010206D00A0DA2F56072C1F31F
:100950001301002A02DC30BC00207047440F44EA37
:10096000C104C100E01830BC00EBC25000F012B965
:10097000002801DBC0F10040002901DBC1F100418A
:1009800081427047002801DBC0F10040002901DBF3
:10099000C1F100418842704730B50B460146002046
:1009A0002022012409E021FA02F59D4205D303FA31
:1009B00002F5491B04FA02F52844151EA2F10102B2
:1009C000F1DC30BD2DE9F05F0546002092469B46E4
:1009D00088460646814640241BE028464146474655
:1009E000224600F02FF853465A46C01A914110D3C0
:1009F00011461846224600F016F82D1A67EB01083A
:100A00004F4622460120002100F00DF817EB0009A7
:100A10004E41201EA4F10104DFDC484631462A463F
:100A20004346BDE8F09F202A04DB203A00FA02F199
:100A3000002070479140C2F1200320FA03F31943CC
:100A400090407047202A04DB203A21FA02F000216E
:100A5000704721FA02F3D040C2F1200291400843CE
:100A600019467047202A06DBCB17203A41FA02F0DC
:100A700043EAE07306E041FA02F3D040C2F12002FB
:100A800091400843194670470FB4002300B589B060
:100A90000CA900910B996FF00042CB601E4B06939E
:100AA0001E4B07930423CDE901321D4A08920246EA
:100AB0006B46002000F020FA09B05DF814FB70B519
:100AC00086B006464FF0FF300091CDE901010020CD
:100AD00015460C4604903246694604A8FFF7D4FF39
:100AE00002460498211825B108B1084600E02046C6
:100AF0002860049800280DD0002A02DD0098884262
:100B000008D0081B0094CDE901043246694604A8C8
:100B1000FFF7BAFF06B070BD311100084F11000891
:100B2000BD0D00082DE9F04791460F46804604466A
:100B3000002614F8015B2DB100F03CF90068405D1F
:100B4000C007F6D12B2D02D02D2D18D0641E4A4699
:100B50003946204600F00CFB27B13968A14201D18B
:100B6000C7F8008071054FF002040BD54042002801
:100B700003DD11F067FE0460A007BDE8F08746F4CE
:100B80008066E4E70028F8DA11F05CFE04606FF09C
:100B90000040F2E70029A8BF7047401C490008BF89
:100BA00020F00100704710B4B0FA80FC00FA0CF09D
:100BB00050EA010404BF10BC704749B1CCF12004D5
:100BC00021FA04F411FA0CF118BF01212143084362
:100BD000A3EB0C01CB1D4FEA00614FEA102042BF8E
:100BE000002010BC704700EBC35010440029A4BF84
:100BF00010BC7047401C490008BF20F0010010BC29
:100C0000704710B5141E73F1000408DA401C41F15E
:100C1000000192185B411A4301D120F0010010BD80
:100C20002DE9F04D92469B4611B1B1FA81F202E0F6
:100C3000B0FA80F220329046FFF7F5FE04460F46E8
:100C400040EA0A0041EA0B0153465A46084313D0D2
:100C5000114653EA010019D0C8F140025046FFF78F
:100C6000F1FE05460E46504659464246FFF7DBFE6A
:100C7000084305D0012004E020463946BDE8F08D48
:100C80000020054346EAE0762C4337430A98630583
:100C9000E40AA0EB08000022FD0A44EA47540A30A7
:100CA00002D500200146E9E7010510196941DDE997
:100CB000084500196941BDE8F04DA2E72DE9F04D66
:100CC00000231A461B1A8A4103DB00200146BDE8B7
:100CD000F08DC1F30A52C1F3130141F480154FF0B6
:100CE000000BD10702D100186D41521E00270446A7
:100CF00040F2FF11384601EB620A3E46804602464A
:100D000000204FF48011FFF79DFEC2197141BB18FE
:100D100046EB0100B4EB030C75EB000C04D3E41AB2
:100D200065EB000517460E46241908F101006D41D8
:100D300080463428E3DDF91946EB0600091BA8417B
:100D400003D24FF0FF32134601E0002213461BEBA3
:100D5000070046EB0A51BDE8F04DFFF752BFC1F363
:100D60000A52C1F3130140F2FF3341F480119A4259
:100D700002DA00200146704740F233439A42A2F261
:100D8000334202DC5242FFF75DBEFFF74CBE00006B
:100D9000064C074D06E0E06840F0010394E80700C8
:100DA00098471034AC42F6D3FFF7F0F90821040855
:100DB0002821040800487047981E040810B504460E
:100DC000FFF7F8FF0068005D00F0010010BD0000B3
:100DD0002DE9FF4F087883B09946FF2805D0491CBC
:100DE0002D2804D00024002008E000200BE001247E
:100DF000F9E700EB800003EB4000491C0B78FF2B68
:100E0000F7D104B1404200230293147819461D46DD
:100E10002D2C01D02B2C04D1521C2D2C13D00024AE
:100E20000294AA461478FF2C0FD00A25A3FB05785C
:100E300001FB05814FF0000C03FB0C11521CE31960
:100E40004AEB0101EEE70124EAE7814453EA01009D
:100E500002D019F5C87F06DA03980021C0E9001115
:100E600007B0BDE8F08F0025AE4E2F46DFF8B88200
:100E7000184600F0DAF9CDE90001B9F1000002DA14
:100E8000C9F1000400E004460023A74A1AEB030B53
:100E900042EB045A12E0E00707D02A4633463846B0
:100EA0004146FFF79DFB074688462A4633461046D3
:100EB0001946FFF795FB05460E466410002CEAD153
:100EC000DDE90001B9F1000F5A46534606DAFFF793
:100ED000F9FB3A464346FFF7F5FB05E0FFF780FBD9
:100EE0003A464346FFF77CFB029A0AB181F0004183
:100EF000039AC2E90001B3E72DE9FF4F1F468DB009
:100F0000D7E901464FF0FF382E2045464FF0000943
:100F10000B90B9696D1C0E988847396A82468847DC
:100F20000028F6D1BAF1FF3F0AD024F4D064002E95
:100F300011DDBAF12B0F08D0BAF12D0F0BD102E061
:100F4000404611B08DE744F48064B9696D1C0E9879
:100F500088478246761E6946600501D52D2000E04F
:100F60002B208DF8000001F1010B0DF1200809E0A4
:100F7000B9696D1C0E98884782460F9844F4007436
:100F8000761E0560002E02DDBAF1300FF0D00B990D
:100F90008A453ED144F0800406E00F99681CA9F10F
:100FA000010944F400740860B9696D1C761E0E983E
:100FB000884782463028F0D02BE00B998A4505D12E
:100FC000200603D444F08004761E18E0504611F049
:100FD0001BFD08B30DF11301761E44F400748B451C
:100FE00008D2AAF130000BF8010B200607D5A9F1B1
:100FF000010003E0200602D409F101008146A005AA
:1010000002D50F99681C0860B9696D1C0E98884755
:101010008246002ED1DC53E0002E51DDBAF1650F7F
:1010200002D0BAF1450F4BD1A00549D5B9696D1C65
:1010300024F44074761E0E9888478246002E0CDDFC
:101040002B2804D0BAF12D0F07D144F48074B9696C
:101050006D1C0E9888478246761EE00501D52D212D
:1010600000E02B2108F8011BCDF82C8021E00DF1C8
:101070002901761E44F4007488450CD2AAF1300090
:1010800010F0FF0088F8000002D10B99884509D9BB
:1010900008F1010806E0E00501D5244801E042F22C
:1010A0000F708146B9696D1C0E98884782460F986B
:1010B0000560002E04DD504611F0A6FC0028D6D1B4
:1010C000F9690E988847FF208BF8000088F8000027
:1010D0000020069007904B466A4608A906A8FFF72D
:1010E00077FEA00502D46FF001002AE714F0240F68
:1010F0000AD0E00714D1DDE906123868031D3B6011
:101100000068C0E900120BE0DDE90601FFF714FCFE
:101110000146E00704D13868021D3A6000680160AA
:1011200028460EE7000014400000F03FF1D8FFFF12
:10113000426842B1016811F8013B23B1521EC0E977
:101140000012184670470121C160881E704742682E
:101150005AB1C368016843B983688B4205D0491E00
:10116000521CC0E90012002070474FF0FF3070475A
:101170002DE9F05F82460078002715468B460AF17C
:101180000104B946302801D09DB113E014F8010BD9
:101190000127782803D0582801D045B10AE00DB1C5
:1011A000102D07D10027102514F8010B02E00825A7
:1011B00000E00A250026B0460EE005FB080005FB0E
:1011C00006F1012701EB10461FFA80F8B6F5803FC3
:1011D00000D3B94614F8010B294600F018F800288E
:1011E000EBDABBF1000F05D00FB1641E00E05446EE
:1011F000CBF80040B9F1000F06D011F023FB02211B
:101200000160C81EBDE8F09F48EA0640FAE73A28A8
:1012100000D2303820F02002412A01D3A2F1370059
:10122000884201D34FF0FF3070470EB540F2334291
:1012300002920022CDE900221346FFF7F1FC03B031
:1012400000BD70B58C1810F8015B15F0070301D1D3
:1012500010F8013B2A1106D110F8012B03E010F819
:10126000016B01F8016B5B1EF9D12B0705D400233C
:10127000521E0DD401F8013BFAE710F8013BCB1ADE
:10128000921C03E013F8015B01F8015B521EF9D5D3
:10129000A142D8D3002070BDCA430260704721B17B
:1012A000826842F00102826003E0826822F001025B
:1012B000826070470021084A1168084A1140D0E94D
:1012C00000231A4383681A43C3681A431143044A2C
:1012D000C2F804137047000004230140E030FCFF13
:1012E000002001400146C86C80B2704702460020D1
:1012F00013680B400BB1012000E00020704710B5CF
:101300000B460021D9B2012404FA01F11AB1446854
:101310000C43446002E044688C43446010BD00000C
:1013200030B50246002000235068104C20400D7953
:101330000C6844EA05242043506090680C4C20401F
:10134000D1E903542C438D682C434D7944EA45047C
:1013500020439060D06A20F470000C7D641EE4B2DB
:10136000234340EA0350D06230BD0000FFFEFFFC83
:10137000FDF7FFC0F0B504460D4600200021092D01
:1013800011DDE068A5F10A0606EB4607072606FA16
:1013900007F18843A5F10A0606EB460603FA06F1B3
:1013A0000843E0600CE0206905EB4507072606FAD4
:1013B00007F1884305EB450603FA06F1084320616F
:1013C000072A0FDA606B561E06EB86071F2606FA01
:1013D00007F18843561E06EB860605FA06F1084318
:1013E000606322E00D2A0FDA206BD61F06EB86071A
:1013F0001F2606FA07F18843D61F06EB860605FA74
:1014000006F10843206310E0E06AA2F10D0606EB46
:1014100086071F2606FA07F18843A2F10D0606EBA0
:10142000860605FA06F10843E062F0BD816841F0E6
:1014300080418160704700002DE9F04F8DB0B748C2
:101440000C900121880207F0D3F8002008904FF497
:101450004030099000200A904FF470600B9008A86B
:10146000FFF728FF002002908DF80C008DF80D008A
:101470000490069001208DF81C000020059002A920
:10148000A748FFF74DFF072301220621A448FFF7D5
:1014900071FF0121A248FFF702FF012242F21A0167
:1014A0009F48FFF72CFF9E48FFF7C0FF40F6FF70F4
:1014B00011F022F802219A48FFF718FF00287DD08A
:1014C0009748FFF70FFF97490880974800680988F9
:1014D00008449549086095480078401CC0B293497B
:1014E000087064286BDB904800686421B0FBF1F061
:1014F0008C49088008460088FFF769F98246002277
:101500008B4BFFF7DFF807464FF06632894BFFF74A
:1015100067F80546FFF710FA874908600846006833
:10152000FFF7C7F90746854A854BFFF759F8054687
:10153000FFF702FA04462046FFF7BBF907460022F0
:10154000804BFFF747F8054600227F4BFFF7BAF8BC
:1015500000227E4BCDE90001FFF742F88246FFF7FB
:10156000EBF981464846FFF73FF90190FFF71EF976
:1015700082460022764BFEF78CFF05460022754B13
:10158000FFF7A0F80746FFF75CF900EB800072490F
:1015900008702046FFF78DF90546704A704BFFF73B
:1015A000B3F902D864206C49087000212046FFF787
:1015B000E9F90BD84FF08241204601E0AAE0A5E00E
:1015C000FFF7D6F902D80020634908700020564979
:1015D00008605649087060480078142806DC01202D
:1015E0006049087040036049088007E000205D49B9
:1015F00008704FF400505C49891E08805B48016800
:101600002046FEF7D0FE0746FFF753F90546584A35
:10161000584BFFF779F90BD2002154480068FFF7C7
:10162000A7F905D001205449087000034E490880ED
:1016300021464E480068FEF7B6FE0746FFF739F927
:1016400005464B4A4B4BFFF75FF907D200204A494A
:1016500008704FF480504449891E0880464800783D
:1016600001280AD13C48007844490978884204DDC1
:1016700043480078401C424908703F48007850B900
:10168000354800783D490978884204DA3D480078B9
:10169000401C3C4908703048007838490978884235
:1016A00004DA38480078401C36490870344800781D
:1016B000032806D14FF480502B4908800020304980
:1016C000087030480078032807D14FF4805026492D
:1016D000891E088000202B4908701F4800781428B4
:1016E00006DC01201F49087040031F49088007E0FD
:1016F00000201C4908704FF400501B49891E0880C7
:101700001A480460144800781C49087002210448F3
:10171000FFF7C2FD0DB0BDE8F08F00006F12833AF5
:1017200000220140B8000020A8000020A6000020F0
:1017300000FEAF4066660A40B000002014C97D324A
:10174000E79B10400000204000001040000059407E
:101750000000044000001440AC000020CDCCCCCCF4
:10176000CCCC2740940000201A14024090000020A6
:101770009A9999999999B93F95000020AD00002058
:10178000960000209700002000B58BB00121880250
:1017900006F02EFF002007904FF440300890002004
:1017A00009904FF470600A9007A8FFF783FD0020AE
:1017B00001908DF8080001208DF8090000200390A9
:1017C000059001208DF818000020049001A92E48F2
:1017D000FFF7A6FD0023012204212B48FFF7CAFDD5
:1017E00001212948FFF75BFD40F6FF7010F084FEF1
:1017F0002548FFF71BFE04F007FE4FF6FF7010F0C0
:101800007BFE21484C3000682049088004F0FCFD34
:101810001F4800681D49098808441D4908601D4883
:101820000078401CC0B21B49087005282ADB002044
:101830000870174800680521B0FBF1F013490880D3
:101840000020134908601148008840F6AA718842B8
:1018500006DA00201049087001201049087011E0D4
:101860000A48008840F6C87188420BDD0B480078B2
:10187000012801D10A490870002008490870012098
:10188000054908700BB000BD00220140A0000020F7
:10189000C4000020D4000020B4000020B5000020C7
:1018A000000500207047000010B50748FEF7D8FC7F
:1018B000064908600A21054802680068401C034B7D
:1018C00018600148815410BDD45C0020F003002052
:1018D00010B50748FEF7C4FC064908600921054811
:1018E00002680068401C034B18600148815410BD19
:1018F000D45C0020F00300202DE9F84F0024A2461C
:10190000B848007800287DD00622B7A1B848FEF775
:10191000DCFC002877D10522B6A1B548FEF794FC7F
:1019200001222C21B24815F0F1F881464846FEF715
:10193000DBFC0090009801F03DFD8246AF48C07985
:1019400018287DDAAD48C079AD490870AB48007AF7
:10195000AC490870A948407AAB4908700422A449F0
:101960001431AA48FEF770FC02222C21A04815F081
:10197000CDF8814699F80000A049087503222C2172
:101980009B4815F0C3F88146484611F043FC0546D4
:10199000FEF7D2FF9949C860C868FEF78AFF05467E
:1019A00000229B4BFEF7B0FF0DD89449C868FEF7A4
:1019B00080FF0546974A984BFEF78EFF03D88F4865
:1019C000C0689649C86005222C21894815F09EF808
:1019D0008146484611F01EFC0546FEF7ADFF8749DB
:1019E00008610869FEF765FF054600228C4BFEF78B
:1019F0008BFF10D881490869FEF75BFF0546894ACD
:101A0000894B01E0ECE0E8E0FEF766FF03D87B4895
:101A100000698249086107222C21754815F076F883
:101A20008146484611F0F6FB0546FEF785FF7349EF
:101A300088618869FEF73DFF07467C4A7C4B00E0E1
:101A4000C2E0FEF7CDFD0546FEF776FF6B498861E3
:101A50007848C078022819D188694FF07E51FEF786
:101A600091FF13D274480068FEF79BFE0646634858
:101A700081693046FEF745FC0546FEF7CEFE6E490D
:101A800008606E480088401C6C4908806B480088DC
:101A9000052815D1594988696949FEF769FF0FD2B0
:101AA000654800680521B0FBF1F0664908700846FA
:101AB0000078052801DC0020087000205F490880BC
:101AC000604800780A2804DA5E4800785E490870A9
:101AD00005E04A498869FEF7A0FE5B4908700922C3
:101AE0002C21434815F012F881464846FEF7FCFBCE
:101AF0008346002406E03E48005D2A2800D103E02A
:101B0000601CC4B2502CF6DB00BF394890F8360098
:101B10003038374991F83510303901EB810100EB4D
:101B200041004A490880324890F83800303830493E
:101B300091F83710303901EB810100EB4100434946
:101B400048802B4890F83A003038294991F83910EC
:101B5000303901EB810100EB41003C4988800846A7
:101B600000783B490870394880783A49087037480E
:101B70000079394908702148007D412810D104219D
:101B8000364802F075FF01201C49087000203449D6
:101B9000087001203349087000203349087018E0AC
:101BA0000020164908702F49087001202E4908703E
:101BB0002E480078012803D02D480078012808D14C
:101BC00001202749087004E000200C49C871087200
:101BD000487250210648FEF71AFB002001490870A0
:101BE000BDE8F88FE1050020244750524D43000026
:101BF00010C501203030303030000000D4C5012045
:101C0000E2050020E3050020E4050020FC0500209B
:101C100000C082408A8EE4F2FF5FAD40B8C501206B
:101C20000090BA40A323B9FCFF0FC340448B6CE77C
:101C3000FBA9FD3F74EC0120EC050020E805002025
:101C4000000020416908002002060020F60500205F
:101C5000E5050020E7050020E60500200010024011
:101C6000F405002001060020E005002063080020A4
:101C70006208002070B5002400250026584800782E
:101C8000B0B958480068012811D11420564948734A
:101C90000020564908805649087000F041FE012096
:101CA000544908705449087000205449087095E060
:101CB0004C480068022830D14D48007808280ADADC
:101CC0004F48B0F90000002805DD4D480088401E4F
:101CD00000B24B4908804648007878B9002048494E
:101CE00008803F480078424908704548008809301C
:101CF0003E4908800720424908806FE03C48007850
:101D000000286BDD3A480078401E394908703C488D
:101D10000088801C3549088060E03248006803284C
:101D20002CD13748B0F90000072805DA344800887C
:101D3000401C00B2324908802D48007828490978B3
:101D400088420AD100202A4908702D490880084697
:101D50000088801C2549088040E0254800782049FB
:101D6000097888423ADA22480078401C20490870F5
:101D700023480088801C1D4908802FE0194800680E
:101D800004281AD100201E49088008201649C8726C
:101D90001C48174A127800EB021105221A48FEF778
:101DA00053FA00201349087018490870164803F0C8
:101DB000DFFE01201049087010E00A480068012881
:101DC0000CD11420084948730020084908800849AC
:101DD000087000F0A5FD01200649087070BD0000E4
:101DE000A1080020100500202DE80120A0070020F8
:101DF00074070020330700206408002084000020BE
:101E00009C0700205DDB0120790700206508002089
:101E10002DE9F04B96B04FF0010BFE48007828B941
:101E200006F0D0FEFF2016B0BDE8F08BFA4800782F
:101E300000F0010000287DD00020F7490870F74825
:101E40000078002877D101F013FEFF2602E002F0AF
:101E5000B9FB0646FF2EFAD0002588E04FF4C020DB
:101E600000EB464000F58C6005EBC50202EB051265
:101E700000EB82011622EA4807F0D4FA0B22E84967
:101E80000EA8FEF7E1F90EA811F0C4F9CDE90C0196
:101E9000FEF752FDE349C86500200E900F901090A8
:101EA00011900B22DE490B310EA8FEF7CDF90EA8DA
:101EB00011F0B0F9CDE90C01FEF73EFDD9490866F5
:101EC000086EFEF7F6FCCDE90A01D649C86DFEF7AB
:101ED000F0FCCDE90801D0490869FEF7EAFCCDE93C
:101EE0000601CD49C868FEF7E4FCCDE90401DDE94F
:101EF0000A01CDE90201DDE90801CDE9000104A8EC
:101F00000FC811F011F9CDE90C01FEF7B9FC044638
:101F1000BBF1000F23D14C450FD2C3480460C34826
:101F20000570C34806700120BC4908700020C149F3
:101F3000087001E04FE21EE0A146012D0FD14C4593
:101F40000DD9B9480460B9480570B9480670012038
:101F5000B24908700020B7490870A1460AE0BBF1F9
:101F6000000F00D0A1464FF0000B681CC5B2052D34
:101F7000FFF674AF2FE2AE4800784FF4C02202EBB8
:101F8000404000F58C60A94A127802EBC20303EBD3
:101F9000021200EB82011622A14807F043FA0B223D
:101FA0009F490EA8FEF750F90EA811F033F9CDE9BC
:101FB0000C01FEF7C1FC9B49C86500200E900F90F4
:101FC000109011900B2296490B310EA8FEF73CF9A8
:101FD0000EA811F01FF9CDE90C01FEF7ADFC9149F7
:101FE0000866086EFEF765FCCDE90A018D49C86DEB
:101FF000FEF75FFCCDE9080187490869FEF759FC47
:10200000CDE906018449C868FEF753FCCDE9040117
:10201000DDE90A01CDE90201DDE90801CDE90001B0
:1020200004A80FC811F080F8CDE90C01FEF728FCD8
:1020300080467F4800784FF4C02202EB404000F514
:102040008C607A4A1278521C02EBC20303EB021234
:1020500000EB82011622724807F0E4F90B22704966
:102060000EA8FEF7F1F80EA811F0D4F8CDE90C0196
:10207000FEF762FC6B49C86500200E900F9010902F
:1020800011900B2266490B310EA8FEF7DDF80EA861
:1020900011F0C0F8CDE90C01FEF74EFC614908666D
:1020A000086EFEF706FCCDE90A015E49C86DFEF731
:1020B00000FCCDE9080158490869FEF7FAFBCDE9B3
:1020C00006015549C868FEF7F4FBCDE90401DDE9D6
:1020D0000A01CDE90201DDE90801CDE9000104A80A
:1020E0000FC811F021F8CDE90C01FEF7C9FB074636
:1020F00050480078401C4F49087008460078012875
:1021000008D14D4807604D48C0F800804C48C0F8E1
:1021100000A060E1474800780228FAD149480760EA
:102120004948C0F800804948C0F800A04648006807
:102130004249096888421FD2424800683E490968FE
:10214000884219D23A480078400400F5C021143181
:10215000052212A807F066F901203D4908703348AE
:1021600000783C49086012A803F002FD00212F48C6
:10217000007802F083FC1BE1334800682F490968AE
:1021800088426BD22F4800682B49096888427AD967
:102190002748007850B90120254908702E4800686A
:1021A00022490978401A2B49086025E02048007828
:1021B000012807D100201E4908701C4800782549D5
:1021C000086019E01A48007802280BD1032018494A
:1021D00008702148016815480078401C081A1D49FC
:1021E000086009E012480078032805D110490870FA
:1021F0000E480078174908600D480078400400F543
:10220000C0211431052212A807F00CF912A803F01E
:10221000AFFC24E001060020D4C50120EE07002019
:10222000E01A00206CF10120E8070020EC070020F4
:10223000ED070020DC080020B4080020BC080020C6
:10224000B8080020C8080020C4080020C0080020EA
:10225000A4070020A40800209C08002013E05F4889
:1022600000685F4A1268811A5D48006802F006FC47
:102270005A4800685A490968401A5A4908600120BA
:102280005949087094E059480068594909688842DA
:102290002ED95848006858490968884228D25748BA
:1022A0000078400400F5C0211431052212A807F07F
:1022B000B9F801204C49087051480078401CC0B260
:1022C0004F4908704649086012A803F051FC434882
:1022D0000068434A1268811A4148006802F0CEFB48
:1022E0003E4800683E490968401A3E4908605FE080
:1022F0003E4800683E490968884259D93D4800680F
:102300003D490968884253D93C48007850B90120BA
:102310003A4908703148006839490978401A30490B
:10232000086025E035480078012807D100203349AE
:102330000870334800782A49086019E02F4800786F
:1023400002280AD103202D490870244800682C492E
:102350000978401A224908600AE0284800780328D2
:1023600006D1022025490870254800781C490860DC
:1023700022480078400400F5C0211431052212A83B
:1023800007F050F812A803F0F3FB14480068144A51
:102390001268811A1248006802F070FB0F4800684A
:1023A0000F490968401A0F49086001200E4908705A
:1023B0000D480078012805D11248129901609DF856
:1023C0004C1001710848007810B100200E490870C7
:1023D00000200E490870002025E500009C08002020
:1023E000A40800205C080020A4070020C4080020E6
:1023F000BC080020C8080020B4080020ED07002019
:10240000EC0700205DDB0120A3070020EE07002081
:1024100070B505460C4609480560204600F010F8E6
:1024200001E003F0F1FF054800680028F9D1002120
:102430004FF0804008F045FE70BD0000BC04002055
:102440003EB5044600214FF0804008F03AFE0022DD
:102450000121880708F052FE022C02D10B200190C6
:1024600004E0012C02D142F6DF6001900520ADF8B6
:1024700000000020ADF80800ADF8020069464FF0FA
:10248000804008F047FE0121880708F017FE01216F
:10249000880708F007FE01221146900708F02EFE7B
:1024A0000121880708F00DFE3EBD30B502460B46FF
:1024B0000020002100BF06E012F8014BCD00AC4027
:1024C00020434C1CE1B29942F6DB30BD08F072FBB0
:1024D00000BFFEE710B50948007838B10020074971
:1024E00008700421064802F0C5FA06E004210448F9
:1024F00002F0BEFA01200149087010BD0306002059
:102500000010024008B50020009010F01FF94FF4B1
:10251000FA7005F069FD4FF400404349088001203E
:1025200005F062FD4FF400403F49891C088000BF60
:102530004FF400713D4802F092FA0028F8D164206F
:102540003B49087000BF4FF40071384802F087FA29
:102550000028F8D006F09CFD4FF4006033491A3192
:10256000088004220021084610F0D2F84FF40060E1
:102570002E4918310880891C088000220821104645
:1025800010F0C6F84FF40060284918310880891C03
:102590000880322211460B2010F0BAF84FF4006088
:1025A000224918310880891C0880002260210320FC
:1025B00010F0AEF84FF400601C4918310880642018
:1025C0001B49087000BF4FF40071184802F047FA29
:1025D0000028F8D0642005F007FD642010F002F90F
:1025E00001229103684606F01DFF9DF80000114985
:1025F000087008460078642808DD64208DF8000023
:10260000087001229103684606F044FF09480078EB
:1026100010F0E8F8084807F037F903F09FFF64204E
:1026200005F0E2FC08BD000018180240001402404A
:10263000DC0500204B070020003C00400146B1F5BE
:102640007A7F01DD002070470846FCE770B503245F
:1026500010E0254660200949087009490D70280AD4
:102660000870280C0870D0200449087064200FF00E
:1026700043FF641C03488442EBD370BD000001702B
:1026800000000270A086010010B5042234A1364873
:10269000FDF71BFE08B9012010BD032233A132480B
:1026A000FDF713FE08B90220F6E7082230A12E48F4
:1026B000FDF70BFE08B90320EEE703222FA12A48FD
:1026C000FDF703FE08B90420E6E704222CA1264802
:1026D000FDF7FBFD08B90520DEE703222AA1224809
:1026E000FDF7F3FD08B90620D6E7042227A11E480E
:1026F000FDF7EBFD08B90720CEE7072225A11A4810
:10270000FDF7E3FD08B90820C6E7082223A1164813
:10271000FDF7DBFD08B90920BEE7082222A1124817
:10272000FDF7D3FD08B90A20B6E7072221A10E481C
:10273000FDF7CBFD08B90B20AEE708221FA10A4820
:10274000FDF7C3FD08B90C20A6E709221EA1064823
:10275000FDF7BBFD08B90D209EE700209CE70000B7
:102760004355525600000000B2F101205053520070
:10277000484F4D452D43544C0000000043544C003D
:102780004354524C00000000524853004C455353F0
:10279000000000005741524E2D4244005741524E16
:1027A000204252440000000048414C542042524410
:1027B0000000000044495354414E540047415445E1
:1027C000205349470000000048414C543A42484CCD
:1027D0005000000010B5042234A13648FDF775FD05
:1027E00008B9012010BD032233A13248FDF76DFD69
:1027F00008B90220F6E7082230A12E48FDF765FD52
:1028000008B90320EEE703222FA12A48FDF75DFD5A
:1028100008B90420E6E704222CA12648FDF755FD5F
:1028200008B90520DEE703222AA12248FDF74DFD65
:1028300008B90620D6E7042227A11E48FDF745FD6A
:1028400008B90720CEE7072225A11A48FDF73DFD6C
:1028500008B90820C6E7082223A11648FDF735FD70
:1028600008B90920BEE7082222A11248FDF72DFD74
:1028700008B90A20B6E7072221A10E48FDF725FD79
:1028800008B90B20AEE708221FA10A48FDF71DFD7D
:1028900008B90C20A6E709221EA10648FDF715FD80
:1028A00008B90D209EE700209CE7000043555256D2
:1028B0000000000016F2012050535200484F4D45D1
:1028C0002D43544C0000000043544C004354524CE0
:1028D00000000000524853004C45535300000000D4
:1028E0005741524E2D4244005741524E20425244CD
:1028F0000000000048414C542042524400000000B7
:1029000044495354414E540047415445205349478C
:102910000000000048414C543A42484C500000002E
:1029200010B5012017490880C0031749088000200E
:10293000164908601649087016490870164908704B
:10294000164908701649087016490860164908703B
:10295000164908701649087016490870164908602B
:102960001649087011490870154908700120154969
:10297000087000201449087064211448FDF747FCD2
:1029800010BD00001818024018140240E80700208B
:10299000EC070020ED070020EE070020EF070020E5
:1029A000A40700205C0800206408002060080020C4
:1029B0006608002067080020A4080020A008002066
:1029C0006108002065080020840000202F1F0020DF
:1029D0002DE9F05F0024A3460027A146A24600BFD0
:1029E00097E07048005D412819DB6E48005D5A2869
:1029F00015DC04EBC4004FF6FF7101EAC005694A1B
:102A0000125D413A02EBC20303EB8212664B1A4499
:102A1000511C664A50194822FDF7D2FB77E0614805
:102A2000005D202817DB5F48005D402813DC04EBC5
:102A3000C400C004050C5B4A125D921F02EBC20386
:102A400003EB8212584B1A44511C584A5019482221
:102A5000FDF7B6FB5BE05348005D20280AD104EB8C
:102A6000C400C004050C5149481948225049FDF7DB
:102A7000A7FB4CE04B48005D2D280BD104EBC400B4
:102A8000C004050C49494819482249494931FDF714
:102A900097FB3CE04348005D2E280BD104EBC400BB
:102AA000C004050C41494819482241499231FDF7BB
:102AB00087FB2CE03B48005D3A280BD104EBC400B7
:102AC000C004050C39494819482239494939FDF7EC
:102AD00077FB1CE03348005D6F280AD104EBC4008B
:102AE000C004050C3149481948223249FDF768FBFA
:102AF0000DE02C48005D6E2809D104EBC400C00431
:102B0000050C2A49481948222B49FDF759FB601C3E
:102B100084B20D2CFFF665AF4FF0010800263CE0B3
:102B20004FF0010808FA07F000F0FF08002426E043
:102B300004EB440050441D49085C00EA080058B109
:102B40001E481F490988405C802141FA09F1084369
:102B50001A491B4A1288885409F10100C0B2814603
:102B600008280AD14FF000090BF101001FFA80FB81
:102B700013480088401C12490880601C84B2B4F5D8
:102B8000A07FD5DB781CC7B2082F04D100270AF13B
:102B9000010000F0FF0A701C86B2182EC0DBBDE8F1
:102BA000F09F000013200020E09001085155002004
:102BB0006E9B0108DB9C010896940108892C00207B
:102BC0009E0300202DE9F05F0024A3460027A146C4
:102BD000A24600BF79E06348005D412819DB6148E7
:102BE000005D5A2815DC04EBC4004FF6FF7101EAC2
:102BF000C0055C4A125D413A02EBC20303EB82124C
:102C0000594B1A44511C594A50194822FDF7D8FA19
:102C100059E05448005D202817DB5248005D4028E9
:102C200013DC04EBC400C004050C4E4A125D921F75
:102C300002EBC20303EB82124B4B1A44511C4B4A6A
:102C400050194822FDF7BCFA3DE04648005D2028B7
:102C50000AD104EBC400C004050C444948194822B9
:102C60004349FDF7ADFA2EE03E48005D2D280BD11B
:102C700004EBC400C004050C3C49481948223C49F7
:102C80004931FDF79DFA1EE03648005D2E280BD134
:102C900004EBC400C004050C3449481948223449E7
:102CA0009231FDF78DFA0EE02E48005D3A280AD1E8
:102CB00004EBC400C004050C2C49481948222C49D7
:102CC0004939FDF77DFA601C84B2192C83DB4FF083
:102CD0000108002642E04FF0010808FA07F000F072
:102CE000FF08002427E004EB44000AEB40001F49E2
:102CF000085C00EA080058B11E481F490988405C7A
:102D0000802141FA09F108431A491B4A1288885464
:102D100009F10100C0B2814608280AD14FF000092C
:102D20000BF101001FFA80FB13480088401C124978
:102D30000880601C84B2B4F5A07FD4DB781CC7B2D5
:102D4000082F04D100270AF1010000F0FF0A4FF418
:102D500096710448FDF75BFA701C86B2182EBADB38
:102D6000BDE8F09F13200020E0900108515500209D
:102D70006E9B0108892C00209E0300202DE9F84F4E
:102D800000200090002782468346C02540F26C71E7
:102D9000B748FDF73CFA002463E0B648005D4128DF
:102DA00015DBB448005D5A2811DC04FB05F086B23F
:102DB000B04A125D413A02EB4202AF4B03EB821183
:102DC000AB4A90192A46FDF7FBF9C02547E0A94810
:102DD000005D302815DBA748005D392811DC05FBB4
:102DE00004F086B2A34A125D163A02EB4202A24BED
:102DF00003EB82119E4A90192A46FDF7E1F9C0259E
:102E00002DE09C48005D20280AD105FB04F086B225
:102E10009749881960229949FDF7D2F9C0251EE02B
:102E20009448005D2D280BD105FB04F086B2904933
:102E300088192A469149C031FDF7C2F9C0250EE034
:102E40008C48005D3A280AD105FB04F086B2884917
:102E500088192A468949C039FDF7B2F9C025601C96
:102E600084B2092C99DB4FF001094FF000083FE0D4
:102E70004FF0010909FA07F000F0FF09002427E0EC
:102E800004EB44000BEB40007949085C00EA0900C0
:102E900058B17B487B490988405C802141FA0AF19E
:102EA00008437749774A128888540AF10100C0B272
:102EB000824608280AD14FF0000A0098401C80B2D0
:102EC000009070480088401C6E490880601C84B2E5
:102ED000B4F5A07FD4DB781CC7B2082F04D100273B
:102EE0000BF1010000F0FF0B08F1010000F0FF08FA
:102EF000B8F1300FBCDB4FF000080027BA46BB46E4
:102F0000092468E05B48005D412816DB5948005DF4
:102F10005A2812DCA4F10900684386B2554A125DB2
:102F2000413A02EB4202544B03EB8211504A901992
:102F30002A46FDF745F9C0254BE04E48005D302894
:102F400016DB4C48005D392812DCA4F10900684307
:102F500086B2484A125D163A02EB4202464B03EB38
:102F60008211434A90192A46FDF72AF9C02530E01C
:102F70004048005D20280BD1A4F10900684386B2C7
:102F80003B498819C0223D49FDF71AF9C02520E0C8
:102F90003848005D2D280CD1A4F10900684386B2A1
:102FA000334988192A463549C031FDF709F9C0254A
:102FB0000FE03048005D3A280BD1A4F109006843C6
:102FC00086B22B4988192A462C49C039FDF7F8F8F2
:102FD000C025601C84B2122C94DB4FF001094FF025
:102FE00000083FE04FF0010909FA07F000F0FF097F
:102FF000002427E004EB44000BEB40001C49085C74
:1030000000EA090058B11E481E490988405C802129
:1030100041FA0AF108431A491A4A128888540AF1F7
:103020000100C0B2824608280AD14FF0000A009879
:10303000401C80B2009013480088401C1149088051
:10304000601C84B2B4F5A07FD4DB781CC7B2082F13
:1030500004D100270BF1010000F0FF0B08F1010083
:1030600000F0FF08B8F1300FBCDBBDE8F88F0000BE
:103070005155002013200020E0720108A08E0108A5
:10308000892C00209E0300202DE9F0478046002077
:10309000002700220025002600BF53E0DFF860C1B2
:1030A0001CF800C0BCF1410F20DBDFF854C11CF854
:1030B00000C0BCF15A0F19DC4FF6FF7C0CEAC004CB
:1030C000DFF840C10CEB0409DFF834C11CF800C084
:1030D000ACF1410CDFF830A10AEBCC0CDCF800A01D
:1030E000C9F800A0DCF804C0C9F804C0DFF810C1BA
:1030F0001CF800C0BCF1200F20DBDFF804C11CF875
:1031000000C0BCF1400F19DC4FEAC04C4FEA1C4430
:10311000DFF8F0C00CEB0409DFF8E4C01CF800C0D5
:10312000ACF1060CDFF8E0A00AEBCC0CDCF800A058
:10313000C9F800A0DCF804C0C9F804C000F1010C13
:103140001FFA8CF02828A9DB0123002154E0012379
:1031500003FA02FC0CF0FF0300203BE000EB060C3E
:10316000DFF8A09019F80CC00CEA030CBCF1000FBA
:1031700015D0DFF898C0DFF89890B9F800901CF8E7
:1031800009C04FF0800949FA05F94CEA090CDFF84B
:103190007C90DFF87CA0BAF800A009F80AC005F11D
:1031A000010C0CF0FF0C6546BCF1080F0ED1002598
:1031B00007F1010C1FFA8CF7DFF854C0BCF800C00F
:1031C0000CF1010CDFF84890A9F800C000F1010CE7
:1031D0001FFA8CF0B0F5A07FC0DB02F1010C0CF0FF
:1031E000FF02082A04D1002206F1010C0CF0FF06B0
:1031F00001F1010C1FFA8CF10829A8DBBDE8F0876A
:10320000132000205155002080010020892C00202F
:103210009E0300202DE9F04F8146002084460022C5
:103220000025002600BF53E0DFF8708118F8008009
:10323000B8F1410F20DBDFF8648118F80080B8F1A5
:103240005A0F19DC4FF6FF7808EAC004DFF8508106
:1032500008EB040ADFF8448118F80080A8F141085F
:10326000DFF840B10BEBC808D8F800B0CAF800B0DE
:10327000D8F80480CAF80480DFF8208118F80080AC
:10328000B8F1200F20DBDFF8148118F80080B8F1C6
:10329000400F19DC4FEAC0484FEA1844DFF80081BC
:1032A00008EB040ADFF8F48018F80080A8F106089B
:1032B000DFF8F0B00BEBC808D8F800B0CAF800B0DF
:1032C000D8F80480CAF8048000F101081FFA88F0D9
:1032D0002828A9DB012300215CE0012303FA02F87E
:1032E00008F0FF03002744E000203BE000EB060865
:1032F000DFF8ACA01AF8088008EA0308B8F1000F5C
:1033000015D0DFF8A480DFF8A4A0BAF800A018F860
:103310000A804FF0800A4AFA05FA48EA0A08DFF8FC
:1033200088A0DFF888B0BBF800B00AF80B8005F180
:10333000010808F0FF084546B8F1080F0ED1002536
:103340000CF101081FFA88FCDFF86080B8F80080F3
:1033500008F10108DFF854A0AAF8008000F1010884
:103360001FFA88F0B0F5A07FC0DB07F1010808F074
:10337000FF07022FB8DB02F1010808F0FF02082A5C
:1033800004D1002206F1010808F0FF0601F101084E
:103390001FFA88F10829A0DBBDE8F08F1320002078
:1033A0005155002080010020892C00209E03002020
:1033B000704700002DE9FC41054600274CF60870D7
:1033C00005440020009001902A4623A168460FF092
:1033D00025FA01A8FCF788FF2149487200208DF8E2
:1033E00004000DF10200FCF77FFFC6B200208DF84B
:1033F00002006846FCF778FFC4B23C2E04DBA6F15D
:103400003C00C6B2601CC4B2182C03DBA4F1180047
:10341000C4B201271248C471067200201149086025
:103420000F48C0794FF4616148430E4908600C4869
:10343000007AC0EB0010096801EB800009490860C0
:103440000748407A096808440649086017B1012016
:10345000BDE8FC810020FBE725366C75000000000C
:10346000D4C50120F005002000210BE00278612A7C
:1034700005DB02787A2A02DC0278203A0270401CCE
:103480004A1CD1B20A29F1DB704700002DE9F04F48
:103490008DB00546884600200C900490039082462B
:1034A00006E015F8010B07A901F80A000AF1010A64
:1034B00028780028F5D107A901F80A00012011F0A9
:1034C00001FD0446022C01D0012C02D10DB0BDE853
:1034D000F08F4FF0000929E0614F002403E007A8B6
:1034E000005D3855641C07A8005D0028F7D107A8C7
:1034F000005D3855C7F8288001200C9059480168B4
:1035000001918088ADF80800012355480F38029AD0
:1035100001F00EF807A9012011F0D4FC0446012C9B
:1035200000D106E009F1010000F0FF09B9F1020F36
:10353000D2DB00BF012C7BD10598069000214A48C0
:1035400010F0EDFF83460020464908804748008878
:10355000488047480078888044480088DB2802D1AA
:1035600043480078888076E04FF400614148FCF7DA
:103570004EFE002638E04FF400613F48FCF747FE5E
:1035800004AB4FF400723C49374811F0C7F9834649
:1035900004AB4FF400723949334811F0BFF9834648
:1035A00004AB4FF4007236492F4811F0B7F9834647
:1035B00004AB4FF4007233492B4811F0AFF9834646
:1035C000BDF8100010B1BBF1000F00D011E0294987
:1035D00001EBC6204FF400622749FCF7F1FD761C91
:1035E000012E01D1002604E0274802F0E9FE002860
:1035F000C1D100BF039800F500600390194880888E
:10360000012801D12148006816480168019180888D
:10361000ADF8080001231748029A00F089FF11480D
:103620008088401C80B20F498880402801D113E077
:1036300013E0039840450ED9002003900B48008802
:103640000A2190FBF1F201FB120018B907A9002032
:1036500013F028F900E087E700BF00BF36E700005D
:1036600077920020A8050020D07200206805002075
:1036700050050020CC9A0020548A0020548C002051
:10368000548E002054900020EC0800209405002067
:103690007047000010B50021014807F012FD10BD71
:1036A000000400402DE9F0410026234F002518E0DA
:1036B00000BF4FF40071214801F0D1F90028F8D083
:1036C0004FF480601D491A3108803146761C1C4A2F
:1036D000505C05F031FD4FF48060184918310880C6
:1036E0006D1CBD42E4DD4FF4806014491A3108803E
:1036F00000240BE000BF4FF40071104801F0AFF957
:103700000028F8D0002005F017FD641CB4F5006F08
:10371000F0DB00BF4FF40071084801F0A0F9002869
:10372000F8D04FF480600549183108804FF4FA70E2
:1037300004F05AFCBDE8F081C026010000140240EC
:10374000D635020870B50024462011F0C5FE0020D1
:1037500011F0ECFE002011F0E9FE4C2011F0BCFE4F
:10376000422011F0B9FE1448007880B11348008857
:10377000C0EB001085012C4605E01148005DC043F8
:103780000F490855641C05F570708442F5D3002478
:1037900004E00B49085D11F0C9FE641C42F25C5064
:1037A0008442F6D942F210710548FCF730FD002042
:1037B0000449088070BD000033070020A0070020E6
:1037C000892C00209E0300201CB501A9002004F0D4
:1037D000D7FF6946002004F0ABFF9DF804002149A3
:1037E00008702149C8719DF80500204908701E49DC
:1037F00008729DF8060048729DF800001C49087088
:103800009DF801001B4908709DF802001A490870D4
:103810009DF8030019490870084600780B2807DD59
:1038200008460078642803DA08460078144988803E
:1038300010480078002807DD0E4800780D2803DACC
:103840000C4800780E4948800B480078002807DDB6
:1038500009480078202803DA0748007808490880DA
:103860001CBD000004050020D4C501200505002072
:103870000A05002007050020090500200805002092
:10388000F60500202DE9FE4F00250027A84600265A
:10389000A9466648C079302817DB6448C0793928C2
:1038A00013DC6348007802280FDA6048C0793038AA
:1038B000C1B260485E4A127881540078022804DA66
:1038C0005B480078401C5A49087059480078022823
:1038D0007ED10020564908705648407855490978ED
:1038E0000A2202FB01005449087020220821534893
:1038F000FCF786FC5248504A127800EB0211052270
:103900004E48FCF7A1FC4D4806F06EFA012871D133
:10391000FF200EF0F1FD494806F0DEFA002869D0DC
:10392000484890F8B89000260120474908700024C4
:103930000CE004EBC40101EB0411444A02EB41002A
:1039400020223221FCF75CFC601CC4B21E2CF0DB90
:10395000002542E03E4951F826003E4905F070F846
:1039600004223C4998316846FCF76EFC2E208DF805
:1039700004006D208DF8050070208DF806003320BE
:103980008DF8070068460FF05AFC8046B8F1000F2A
:103990001DD101203049087030480078401C2F4963
:1039A00008702C492E48FCF787FC2D48FCF758FC82
:1039B000824639467A1CD7B201EBC10202EB0111F3
:1039C000224A02EB410052462549FCF7F9FB00E090
:1039D00010E0701CC6B2681CC5B24D45BADB0120B0
:1039E000204908701C480078012803D14FF4FA7070
:1039F0001D4908600D480078C0F38000A0B1072081
:103A00001A49087408204874012048740020154998
:103A1000087011480078012804D100200F4908706F
:103A20000D49087005F0CEF8BDE8FE8F48820020F1
:103A3000480700207707002074070020790700203E
:103A40005DDB0120F0E90120F107002081D5012094
:103A5000A8EB012024EE01204D0700204E07002096
:103A60001ED5012046070020140500202DE8012066
:103A700070B500250026002400203D49087000BFD5
:103A800071E03C480078012814D106EB4600400460
:103A900000F5C0217D311422374805F0C3FC06EB48
:103AA0004600400400F5C02114311422334805F0CB
:103AB000B9FC0FE0700400F5C0217D3114222E48BE
:103AC00005F0B0FC700400F5C021143114222B481D
:103AD00005F0A8FC29480078FF2800D145E02448DB
:103AE0000078401C22490870002424E02248005D30
:103AF000412803DB2048005D5A281ADD1E48005D7E
:103B00002D2816D0142C14DC022C07DA1848007863
:103B1000401E17490870681EC5B220E01648005DB7
:103B2000302803DB1448005D392802DD00201249EB
:103B30000855601CC4B2142CD8DB05EBC50101EBA1
:103B400005110F4A881814220B49FCF77DFB0D491B
:103B500001EB051005220949FCF776FB00BF681C44
:103B6000C5B2701CC6B2502D8BDB00BF70BD00000B
:103B7000A10800202407002050D5012000D50120F5
:103B80005DE001205DDB012005480068012805D1CA
:103B9000142004494873002003490880704700003E
:103BA000100500202DE80120A007002010B50220FC
:103BB00000F002F810BD0000014600200022074B73
:103BC0001B6803EA0102054B14331B680B4013B159
:103BD0000AB1012000E0002070470000003C0140D5
:103BE00010B50A20A0490870A0480068022810D12A
:103BF0009F480078002804DD9D480078401E9C49BD
:103C000008709B480078012802DA00209849087063
:103C1000EDE096480068032812D195480078924953
:103C20000978884204DA92480078401C904908706C
:103C30008F4800780928EBDD00208D490870D6E018
:103C40008A48006804287DD100208A49087104222E
:103C50009102894805F0E6FB85480178874802789B
:103C60000078401C854B1870824881548448007845
:103C7000032805DA82480078401C8149087002E078
:103C800000207F4908707D480078042802DD00206C
:103C90007A490870042277497748FCF716FB80B907
:103CA000012078490870784908700020734908702D
:103CB0005820764908707649087076490870764928
:103CC000087000206A4908706C48007801280BD100
:103CD0000846007830306F49087058206C490870E9
:103CE0006D490870694908706448007802280BD152
:103CF0005F4800783030684908705820644908707F
:103D000064490870614908705C48007803280BD149
:103D10005748007830305D49087058205C49087079
:103D20005C4908705C4908705448007804285ED1EA
:103D30005820564908705649087056490870564927
:103D4000087000E017E04F48007801284FD0142099
:103D50005249487300205249088045490870FEF7CF
:103D6000DFFD01204F490870002044490870414898
:103D7000002101603BE03D480068052817D1002084
:103D80003C490871042291023B4805F04BFB042298
:103D900038493948FCF799FA48BB0120394908707D
:103DA0003448002101600020344908701FE02F488A
:103DB000006801281BD11420384948730020384975
:103DC00008802B490870FEF7ABFD012035490870CB
:103DD00000202A49087058202C4908702C49087086
:103DE0002C4908702C4908702248002101602348A2
:103DF000007840B91D480068012804D01C480078AC
:103E00003030234908701D48007801280BD118482C
:103E1000007830301F49087058201D4908701E492D
:103E200008701A4908701548007802280BD110480C
:103E30000078303018490870582015490870154925
:103E40000870124908700D48007803280BD1084803
:103E5000007830300D49087058200D4908700D4920
:103E600008700D49087010BDA20800201005002040
:103E7000220100208A07002055070020AE070020FD
:103E800048070020450700203107002026010020B8
:103E90002301002024010020250100202DE801201D
:103EA000A00700203307002010B5002406E04FF4DF
:103EB000005101EB043005F051FC641C5D2CF6D37D
:103EC0004FF47C4005F04AFC4FF47C41002005F0A3
:103ED00045FA10BDF0B591B006460C4659480F9012
:103EE0004FF4807010903146684610F0DFFC0546B4
:103EF000002D75D19CE002F087FA09A9684610F000
:103F0000F7FD054615B99DF82D0000B996E09DF81E
:103F10002D002E2800D18BE00F98007808B10F9863
:103F200001E00DF12D00074647480078401C464946
:103F3000087008460078092801DD00200870012C6F
:103F400007D142A14348FCF7B7F942480FF087F97F
:103F500026E0022C07D140A13E48FCF7ADF93D48D0
:103F60000FF07DF91CE0032C07D13EA13948FCF786
:103F7000A3F938480FF073F912E0042C07D13DA1E2
:103F80003448FCF799F933480FF069F908E0052C3B
:103F900006D13DA12F48FCF78FF92E480FF05FF9AD
:103FA0009DF82C0000F03F00102803D138460FF098
:103FB00056F902E038460FF052F9264838A1098830
:103FC00001800FF04CF99DF82C0000F03F00102804
:103FD00007D1012C05D102213846FFF77BFF26E0EF
:103FE0002DE09DF82C0000F03F00102806D1022C97
:103FF00004D103213846FFF76DFF18E09DF82C002F
:1040000000F03F00102806D1032C04D104213846CB
:10401000FFF760FF0BE09DF82C0000F03F00102838
:1040200005D1042C03D105213846FFF753FF00BF0B
:104030001C4802F0C5F900287FF45DAF00BF284698
:1040400011B0F0BDF4740020E40300202020207C97
:104050005F5F00005C7000202020207C2020207CFE
:104060005F5F00002020207C2020207C2020207CFE
:104070005F5F00002020207C2020207C2020207CEE
:104080002020207C5F5F00002020207C2020207CDE
:104090002020207C2020207C2020207C5F5F0000CE
:1040A0000A000000EC08002030B50446002505E0B9
:1040B00014F8010B2A494855681CC5B2207800281D
:1040C000F6D12749485514F8010B087514F8010B6F
:1040D000487514F8010B887502212046FEF7E5F9B2
:1040E0001F490883A41C02212046FEF7DEF91C4963
:1040F0004883A41C02212046FEF7D7F9184988837B
:10410000A41C02212046FEF7D0F91549C883A41C3F
:1041100002212046FEF7C9F911490884A41C022196
:104120002046FEF7C2F90E494884A41C022120460D
:10413000FEF7BBF90A498884002506E0641C207854
:10414000FF2800D003E0681CC5B21E2DF6DB00BFBF
:1041500004212046FEF7A9F90149886230BD00001C
:1041600044C1012099B1102808D14FF02042126EAD
:1041700042F004024FF020431A661BE00E4A126818
:1041800042F004024FF02043C3F8802012E01028D0
:1041900008D14FF02042126E084B1A404FF02043D6
:1041A0001A6607E0044A1268044B1A404FF0204395
:1041B000C3F8802070470000800000A0FBFF0F00C4
:1041C00030B5002100220023446844F008048568CB
:1041D0002C43C5682C4305692C43456944EA4524B2
:1041E000856944EA4531C4692468C5696D6844EA53
:1041F0000524C5692D8944EA0544C5692D7B44EA37
:104200000562046A2468056A6D6844EA0524056A43
:104210002D8944EA0544056A2D7B44EA0563046858
:10422000102C05D14FF020442166A266E36608E019
:10423000044C21604FF02044C4F88820014C0C3419
:10424000236030BD800000A001464FF480708A8852
:10425000521C8A808A88402A11D100228A804A888A
:10426000521C4A804A88B2F5806F08D100224A80E9
:104270000A88521C0A800A88012A00D1400070472F
:1042800030B54FF08074402500F03CF9054603E05E
:1042900000F038F90546641E402D01D0002CF7D1FE
:1042A0000CB94FF48065284630BD000000B58FB0D2
:1042B0000121782004F05CF90C220B214B4800F01E
:1042C000ABFB0C221146494800F0A6FB0C220E2144
:1042D000464800F0A1FB0C220F21444800F09CFB53
:1042E0000C220021414800F097FB0C2201213F489D
:1042F00000F092FB0C2204213C4800F08DFB0C22C4
:1043000005213A4800F088FB0C220721374800F0CD
:1043100083FB4DF6B3000D9003208DF8390000208B
:104320008DF83A0001208DF83B0002208DF838000E
:104330000DA92E4800F012FB4FF4F0600D900C22F6
:1043400007212B4800F068FB0C220821284800F0C8
:1043500063FB0C220921264800F05EFB0C220A2197
:10436000234800F059FB0DA9214800F0F7FA0C2270
:1043700006211E4800F050FB40200D9003208DF8D0
:10438000390000208DF83A0002208DF83800012015
:104390008DF83B000DA9154800F0E0FA40200D9083
:1043A0000DA9144800F0DAFA0220009003200190D1
:1043B0000420029002200390102004900220059017
:1043C0000020069040200790C0020890002009902D
:1043D0000A90CDF82CD0CDF830D004A8FFF7F0FE2D
:1043E00001211020FFF7BEFE0FB000BD000C0240FF
:1043F00000100240001802402DE9FF4706461C4607
:10440000002500274FF480784FF04009AA4625E0A8
:10441000002019490870194908700870BDF8080093
:10442000BDF8061040EA811014490870BDF8060076
:10443000C0F38700087030200F4908704FF4006AFD
:1044400004E04FF0E040007870556D1C5545F8D3FE
:104450007F1C641E01A8FFF7F7FE804614B1B8F573
:10446000807FD5D0FFF70CFF8146FF200EF044F887
:10447000484604B0BDE8F0870000017000000270FB
:104480002DE9FF4706461C46002700254FF480789B
:104490004FF04009AA4626E0002018490870184944
:1044A000087008200870BDF80800BDF8061040EA42
:1044B000811013490870BDF80600C0F3870008702A
:1044C00030200E4908704FF0100A04E04FF0E04031
:1044D000007870556D1C5545F8D37F1C641E01A8EB
:1044E000FFF7B2FE804614B1B8F5807FD4D0FFF755
:1044F000C7FE8146484604B0BDE8F0870000017061
:1045000000000270002100207022084B1A70120671
:10451000117801F001020AB1012006E001F0400229
:10452000402A01D1402000E00020704700000170C7
:104530002DE9FF4707461C460025A8464FF4807921
:104540004026AA462CE080201C49087000201C4907
:1045500008700870BDF80800BDF8061040EA811028
:1045600017490870BDF80600C0F3870008704FF4C3
:10457000006A04E0785D4FF0E04108706D1C55451D
:10458000F8D310200D490870FFF77AFE0646402E3A
:1045900006D108F10108641E01A8FFF755FE814607
:1045A00024B1B9F5807F01D1402ECCD0FF200DF091
:1045B000A3FF304604B0BDE8F087000000000170A2
:1045C000000002702DE9F04F8DB093480A9007E08B
:1045D0009248007820B1FDF78FF900208F490870CC
:1045E0008F4988698F49FCF7C3F904D20A98411EA4
:1045F0000A910028ECD18A4988698A49FCF7B8F900
:1046000003D2FF200DB0BDE8F08F0020864908706E
:10461000F8E08548007800EB4000844901EB004653
:104620000020834908600B907C48007820B1FDF79A
:1046300063F90020794908700024DAE003F012FCE5
:10464000311916227B4804F0EDFE7A4801F060FA39
:1046500019340B98401C0B907749C868FCF729F96E
:104660000746884674490869FCF723F9CDE9060135
:104670006B490869FCF71DF982468B466849C86892
:10468000FCF717F9CDE90278CDE90401DDE906016F
:1046900052465B46CDE90001DDE904010EF044FD20
:1046A000CDE90801FCF7ECF8814600200C90B9F147
:1046B0000A0F7CD85E480068401C5D4908608CE0A9
:1046C00019345648007820B1FDF716F900205349F7
:1046D0000870002538E031191622564804F0A2FE71
:1046E000544801F015FA5449C868FCF7E2F8074647
:1046F000884651490869FCF7DCF882468B464849F0
:104700000869FCF7D6F8CDE906014549C868FCF709
:10471000D0F8CDE900ABCDE90278CDE90401DDE9BF
:1047200006230EF001FDCDE90801FCF7A9F881464A
:104730001934B9F10A0F05D83D480068401C3C49BE
:10474000086003E0681CC5B2052DC4DB00BF05EBA3
:10475000C50000EB0510241A0C98401CC0B20C9048
:10476000072804DD32480068032800D839E03048C3
:104770000068042802D32C48007843E727480078D3
:1047800058B3FDF7B9F80020244908702A49C868D1
:10479000FCF78FF80746884627490869FCF789F82F
:1047A00082468B461E490869FCF783F800E019E051
:1047B000CDE906011A49C868FCF77BF8CDE900ABE2
:1047C000CDE90278CDE90401DDE906230EF0ACFC69
:1047D000CDE90801FCF754F88146B4F57F4FFFF4AA
:1047E0006FAF00BF12480068082802D30E48007857
:1047F00008E7B4F57F4FFFF421AF0B480078401C69
:1048000009490870084800780C4909788842FFF681
:1048100000AFFF20F6E6000040420F00E105002057
:10482000D4C5012000002041B008002054066400D7
:10483000AC080020BCF60120F0C50120A108002032
:1048400070B504460D464FF480704249088001203F
:104850000CF034FA4FF480703E49891E0880000144
:104860003D490883402010F037FE05200CF026FA61
:10487000302010F05BFE0F2010F058FE8F2010F05B
:1048800055FE272010F052FE2F2010F04FFEEF2093
:1048900010F04CFE282010F049FE002010F046FEDB
:1048A000442010F019FE002010F040FE002010F00F
:1048B0003DFEF02010F03AFE802010F037FE25205B
:1048C00010F034FEF02010F031FE002010F02EFE2B
:1048D0004B2010F02BFE002010F028FE002010F0DE
:1048E00025FE5A2010F0F8FD002010F01FFE5B207E
:1048F00010F0F2FD1D2010F019FE592010F0ECFD13
:10490000162010F013FE002011F06CFA4FF4FA504C
:1049100011F068FA4FF47A5011F064FA462010F062
:10492000DBFD002010F002FE002010F0FFFD5D20F6
:1049300010F0D2FD0F2010F0F9FD8F2010F0F6FDE1
:10494000592010F0C9FD4C2010F0C6FD422010F097
:10495000C3FD70BD1A0C024000100240F0B50A46BB
:1049600000210023002400BF3DE0012505FA01F3EA
:10497000156805EA03049C4234D105684F000326FC
:10498000BE40B543056015794E00B5400668354315
:1049900005601579012D02D01579022D16D1856893
:1049A0004F000326BE40B543856055794E00B540A3
:1049B000866835438560456801268E40B54345606D
:1049C000456896798E40B6B235434560C5684F005C
:1049D0000326BE40B543C560D5794E00B540C668D4
:1049E0003543C560491C1029BFD3F0BD1CB5FF205D
:1049F000009002208DF8050000208DF807000120AE
:104A00008DF8040000208DF8060069460148FFF784
:104A1000A5FF1CBD00080240F0B5002300244D078F
:104A2000ED0E02FA05F3CE1000F1200555F82650E0
:104A30004E07F70E0F26BE40B543CF1000F12006FB
:104A400046F82750CE1000F1200555F8265045EACB
:104A50000304CE1000F1200545F82640F0BD0246C3
:104A6000002013690B400BB1012000E000207047CB
:104A70004183704701837047416170472DE9F04FD2
:104A800099B080464FF00009F9480068F949096873
:104A9000401AF9490860F948006916904FF4967178
:104AA000F748FBF7B4FB20221421F548FBF7A8FBDD
:104AB0000024CDF8488060E100BF08EB040000EB63
:104AC000C00101EB0011169800F2764000EB810066
:104AD00015901422EB48159904F0A4FC04EBC401D2
:104AE00001EB0411E64A02EB810101F13C000A22CC
:104AF000E449FBF7A9FB08EB040000EBC00101EB64
:104B00000011169800F5906000EB810015901E22B0
:104B1000DC48159904F086FC04EBC40101EB041198
:104B2000D74A02EB810101F11E001E220021FBF792
:104B30008BFB04EBC40101EB0411D14A02EB8100B1
:104B400020221E21FBF75CFB04EBC40101EB0411E6
:104B5000CB4A02EB810101F11E0020221E21FBF74E
:104B60004FFBC9A1C748FBF75DFB8346BBF1000FB4
:104B700022D09BF800004B281ED0C248ABEB0001AE
:104B8000179104EBC40101EB0411BD4A02EB810053
:104B9000BC49179AFBF758FB1799C1F11E0204EBA9
:104BA000C40101EB0411B64B03EB810101F11E00BE
:104BB0005946FBF749FB0AE004EBC40101EB041181
:104BC000AF4A02EB81001422AE49FBF73DFB08EB34
:104BD000040000EBC00101EB0011169800F2AF4099
:104BE00000EB810015900A22A648159904F01AFCE2
:104BF00004EBC40101EB0411A14A02EB810101F1B4
:104C000046000A229F49FBF71FFB04BB04EBC401CB
:104C100001EB04119A4A02EB810005229AA1FBF7ED
:104C200054FB58B104EBC40101EB0411944A02EBAC
:104C30008100052296A1FBF748FB40B98D4800682A
:104C4000401C8C49086008F10108002435E704EB9A
:104C5000C40101EB04118A4A02EB810101F1460013
:104C6000FEF702FC08EB040000EBC00101EB0011B1
:104C7000169800F5956000EB81001590062281489A
:104C8000159904F0CFFB7F48407804EBC40101EB99
:104C900004117B4A02EB810181F850007948807849
:104CA00014904FF6FF71149801EA00201490754893
:104CB000C07814990843149004EBC40101EB04116B
:104CC00002EB8101149848656E48007914904FF604
:104CD000FF71149801EA002014906A4840791499F1
:104CE000084314904FF4167004EBC40101EB041157
:104CF00002EB8101886508EB040000EBC00101EBC9
:104D00000011169800F58C6000EB810015901622BA
:104D10005C48159904F086FB0B225A490FA8FBF753
:104D200093FA0FA80EF076FACDE90C01FBF704FE1A
:104D300004EBC40101EB0411514A02EB8101C86587
:104D400000200F90109011900B224E490B310FA8AC
:104D5000FBF77AFA0FA80EF05DFACDE90C01FBF72C
:104D6000EBFD04EBC40101EB0411454A02EB8101A8
:104D70000866641C1298401C12903D4912980968FC
:104D8000884202D2032CFFF697AE002042490870F9
:104D9000FDF77AFC40490870142239493F48FBF777
:104DA0000FFA64213E48FBF732FA3B4800780128AD
:104DB00006D108223BA13A485030FBF701FAC4E083
:104DC00035480078022806D1072239A134485030EE
:104DD000FBF7F6F9B9E030480078032806D107223E
:104DE00035A12F485030FBF7EBF9AEE02A480078A8
:104DF000042806D1072230A129485030FBF7E0F9FA
:104E0000A3E025480078052806D108222CA12448D3
:104E10005030FBF7D5F998E01F480078062806D1F6
:104E200007222AA11E485030FBF7CAF98DE01A4824
:104E30000078072806D1082226A119485030FBF730
:104E4000BFF982E014480078082806D10B2224A17B
:104E500013485030FBF7B4F977E00F480078092881
:104E60004CD10C2221A10E485030FBF7A9F96CE07F
:104E70009C080020A40800205C08002040ED0120D0
:104E80006CF10120E01A00204B4D204E6F00000015
:104E90004B4D206E6F000000F0070020F4E8012069
:104EA0002F1F0020435552562E6D70330000000016
:104EB0005053522E6D70330043544C2E6D7033009E
:104EC0004354524C2E6D7033000000005248532E54
:104ED0006D7033004C4553532E6D7033000000004D
:104EE0005741524E2D42442E6D7033005741524E61
:104EF000204252442E6D703300000000FB480078C1
:104F00000A2805D10C22FAA1FD48FBF759F91CE04B
:104F1000F64800780B2805D10B22FAA1F848FBF7D8
:104F20004FF912E0F14800780C2805D10C22F8A1C5
:104F3000F348FBF745F908E0EC4800780D2804D168
:104F40000D22F6A1EE48FBF73BF9E848007800286F
:104F50007ED1F64890F84700202802D14FF0010991
:104F600016E0F24890F84800202802D14FF00209DC
:104F70000EE0EE4890F84900202802D14FF00309D6
:104F800006E0EA4890F84A00202801D14FF00409D1
:104F9000B9F1010F06D10122E4494631E348FBF79C
:104FA00094F9F0B9B9F1020F06D10222DF49463176
:104FB000DE48FBF78AF9A0B9B9F1030F06D1032245
:104FC000DA494631D948FBF780F950B9B9F1040FF5
:104FD0007ED10422D5494631D448FBF776F9002822
:104FE00076D00026002539E04FF0000A00241DE0AD
:104FF000CE484630405D3A280FD02846691CCDB2D5
:10500000CA4946310A5C06EB8600BD49503901EBBE
:1050100080032046641C1A5401E0681CC5B20AF1E2
:105020000100C0B28246132800DD04E0BF484630CC
:10503000405D2028DCD100BF681CC5B264B106EB1E
:105040008601AF4A503A02EB81010819042200E0C0
:10505000A6E0A9A1FBF7B4F8701CC6B2012EC3DB11
:10506000012600254AE04FF0000A00241BE0AF486B
:10507000405D3A280ED02846691CCDB2AB490A5C87
:1050800006EB86009E49503901EB80032046641CE4
:105090001A5401E0681CC5B20AF10100C0B2824690
:1050A000132800DD03E0A148405D2028DFD100BFC8
:1050B000681CC5B29EA19D48FBF7D9F820B19EA1FE
:1050C0009A48FBF7D4F858B99D4800781E2800E0AC
:1050D00017E004DC9B480068B0F5FA7F00D200249A
:1050E00054B106EB8601864A503A02EB8101081959
:1050F000042281A1FBF764F8701CC6B2032EB2DB58
:105100009CE00026002548E04FF0000A00241BE048
:105110008648405D3A280ED02846691CCDB28349A6
:105120000A5C06EB86007649503901EB8003214684
:10513000641C5A5401E0681CC5B20AF10100C0B2F7
:105140008246132800DD03E07848405D2028DFD147
:1051500000BF681CC5B276A17448FBF788F820B17F
:1051600075A17248FBF783F848B9754800781E2886
:1051700004DC74480068B0F5FA7F00D2002454B112
:1051800006EB86015E4A503A02EB810108190422BF
:1051900059A1FBF715F8701CC6B2032EB4DB4DE025
:1051A0000026002548E04FF0000A00241BE05F487D
:1051B000405D3A280ED02846691CCDB25B490A5C96
:1051C00006EB86004E49503901EB80032046641CF3
:1051D0001A5401E0681CC5B20AF10100C0B282464F
:1051E000132800DD03E05148405D2028DFD100BFD7
:1051F000681CC5B24EA14D48FBF739F820B14EA14D
:105200004A48FBF734F848B94D4800781E2804DCBA
:105210004C480068B0F5FA7F00D2002454B106EB88
:105220008601374A503A02EB81010819042232A163
:10523000FAF7C6FF701CC6B2032EB4DB30485038F4
:1052400090F8280018B902203F49087002E00320B6
:105250003D4908702A485038007D10B901203A496C
:10526000087000271CE03149C819022237A1FBF75A
:105270002CF898B9092F11DB012013900AE02B4973
:105280001398085C202801D1142706E01398401CCD
:10529000C0B2139013981428F1DB00BF781CC7B27A
:1052A000142FE0DB22A12148FAF7BCFF0E9010B1C9
:1052B00000210E988173FDF78DFA0C4908701422B5
:1052C0001A4964312248FAF77BFF64212148FAF732
:1052D0009EFF0648007801283ED10822AFF23C41EB
:1052E0001C485030FAF76CFFB9E00000F0070020CE
:1052F00048414C54204252442E6D7033000000004F
:105300007F1F002044495354414E542E6D7033008A
:10531000474154455349472E6D70330048414C5422
:105320003A42484C502E6D70330000006CF1012061
:105330004C2058494E470000444A204F50454E00EB
:10534000690800206C080020E507002020200000EC
:10535000F4E80120931F0020FE480078022806D1BF
:105360000722AFF2B441FC48FAF72AFF77E0F94888
:105370000078032806D10722AFF2C441F648FAF7B5
:105380001FFF6CE0F3480078042806D10722AFF233
:10539000D841F148FAF714FF61E0EE48007805289B
:1053A00006D10822AFF2E841EB48FAF709FF56E0D0
:1053B000E8480078062806D10722AFF2F041E64817
:1053C000FAF7FEFE4BE0E3480078072806D10822F2
:1053D000AFF20051E048FAF7F3FE40E0DD48007814
:1053E000082806D10B22AFF20851DB48FAF7E8FE95
:1053F00035E0D8480078092806D10C22AFF21451C4
:10540000D548FAF7DDFE2AE0D24800780A2806D10E
:105410000C22AFF22411D048FAF7D2FE1FE0CD489B
:1054200000780B2806D10B22AFF22811CA48FAF7F0
:10543000C7FE14E0C74800780C2806D10C22AFF252
:105440003011C548FAF7BCFE09E0C24800780D28C3
:1054500005D10D22AFF23C11BF48FAF7B1FEBD48AD
:10546000007800286FD1BD4890F8AB00202802D109
:105470004FF0010916E0B94890F8AC00202802D19D
:105480004FF002090EE0B54890F8AD00202802D197
:105490004FF0030906E0B14890F8AE00202801D192
:1054A0004FF00409B9F1010F07D10122AB49AA312C
:1054B000A1F14600FAF709FF00BBB9F1020F07D1CD
:1054C0000222A649AA31A1F14600FAF7FEFEA8B9C8
:1054D000B9F1030F07D10322A049AA31A1F1460077
:1054E000FAF7F3FE50B9B9F1040F45D104229B49F4
:1054F000AA31A1F14600FAF7E8FEE8B3002600253C
:1055000039E04FF0000A00241EE09448AA30405DC4
:105510003A280FD02946681CC5B29048AA30425C90
:1055200006EB86008C49503901EB80032046641C51
:105530001A5401E0681CC5B20AF10100C0B28246EB
:10554000132801DD05E0C8E08448AA30405D20282A
:10555000DBD100BF681CC5B25CB106EB86017E4A98
:10556000503A02EB810108190422AFF27421FAF7D4
:1055700027FE701CC6B200E058E0012EC1DB0126F8
:10558000002550E04FF0000A00241DE0734864300D
:10559000405D3A280FD02846691CCDB26F4964316E
:1055A0000A5C06EB86006C49503901EB800320460B
:1055B000641C1A5401E0681CC5B20AF10100C0B2B3
:1055C0008246132800DD04E064486430405D2028F2
:1055D000DCD100BF681CC5B2AFF2AC215F486430BB
:1055E000FAF745FE30B1AFF2B0215C486430FAF70B
:1055F0003EFE48B95A4800781E2804DC5948006825
:10560000B0F5FA7F00D200245CB106EB8601524A65
:10561000503A02EB810108190422AFF22431FAF763
:10562000CFFD701CC6B2032EACDBB6E00026002511
:1056300050E04FF0000A00241DE048486430405D0F
:105640003A280FD02846691CCDB2444964310A5C1F
:1056500006EB86004049503901EB80032146641C6B
:105660005A5401E0681CC5B20AF10100C0B282467A
:10567000132800DD04E039486430405D2028DCD187
:1056800000BF681CC5B2AFF2583134486430FAF735
:10569000EEFD30B1AFF2603130486430FAF7E7FD2B
:1056A00048B92F4800781E2804DC2E480068B0F561
:1056B000FA7F00D200245CB106EB8601264A503AFC
:1056C00002EB810108190422AFF2D431FAF778FD18
:1056D000701CC6B2032EACDB5FE0002600255AE04A
:1056E0004FF0000A00241DE01C486430405D3A2859
:1056F0000FD02846691CCDB2184964310A5C06EB0C
:1057000086001549503901EB80032046641C1A5469
:1057100001E0681CC5B20AF10100C0B2824613283C
:1057200000DD04E00D486430405D2028DCD100BF7E
:10573000681CC5B2AFF2084108486430FAF797FD1B
:1057400030B1AFF20C4105486430FAF790FDA0B9D2
:10575000034809E0F0070020E31F00206CF101205E
:10576000690800206C08002000781E2804DC6F48BF
:105770000068B0F5FA7F00D2002454B106EB860130
:105780006B4A02EB810108190422AFF29441FAF747
:1057900017FD701CC6B2032EA2DB654890F82800E6
:1057A00018B902206349087002E0032061490870BB
:1057B0005F48007D10B901205E49087000271DE098
:1057C0005D49C8190222AFF27C41FAF77EFD98B913
:1057D000092F11DB012013900AE057481399405C10
:1057E000202801D1142706E01398401CC0B2139062
:1057F00013981428F1DB00BF781CC7B2142FDFDB2D
:10580000AFF2D4414C48FAF70DFD0E9010B10021D3
:105810000E98817348496439086EFBF74AF8CDE960
:105820000A0145496439C86DFBF743F8CDE9080121
:1058300042490869FBF73DF8CDE906013F49C868D0
:10584000FBF737F8CDE90401DDE90A01CDE90201F2
:10585000DDE90801CDE9000104A80FC80DF064FCE2
:10586000CDE90C01FBF70CF8304908603249643986
:10587000D1F8C400FBF71DF8CDE90A012E496439BF
:10588000D1F8C000FBF715F8CDE908012B490869EC
:10589000FBF70FF8CDE906012849C868FBF709F8BE
:1058A000CDE90401DDE90A01CDE90201DDE90801E4
:1058B000CDE9000104A80FC80DF036FCCDE90C01BC
:1058C000FAF7DEFF1E4908601B496439D1F8280148
:1058D000FAF7EFFFCDE90A0117496439D1F824013D
:1058E000FAF7E7FFCDE9080114490869FAF7E1FF83
:1058F000CDE906011149C868FAF7DBFFCDE90401DB
:10590000DDE90A01CDE90201DDE90801CDE9000187
:1059100004A80FC80DF008FCCDE90C01FAF7B0FFA0
:105920000849086019B0BDE8F08F00006C0800203D
:10593000931F0020D8000020D0F10120D4C5012001
:1059400070080020740800202DE9F05F06222C2149
:10595000294811F0DBF8834658460DF05BFC0446FD
:10596000FAF78EFF82460A222C21234811F0CEF846
:1059700083465046FAF72BFF06460F4658460DF071
:1059800049FC804632463B46FAF783FD0446FAF767
:1059900077FF82460E222C21174811F0B7F8834674
:1059A0005046FAF714FF8046894658460DF032FCFF
:1059B000064642464B46FAF76CFD0446FAF760FF8E
:1059C000824612222C210C4811F0A0F88346504642
:1059D000FAF7FDFE8046894658460DF01BFC064648
:1059E00042464B46FAF755FD0446FAF749FF824610
:1059F0005046BDE8F09F000060C5012010B500F0E2
:105A000003FD10213E48FFF72AF858B93D480168C8
:105A10000068401C3B4A1060142970DD01203A499F
:105A200008706CE008213648FFF719F858B9354876
:105A300001680068401C334A106014295FDD0220B1
:105A4000314908705BE004212D48FFF708F858B988
:105A50002C4801680068401C2A4A106014294EDD59
:105A60000320294908704AE002212548FEF7F7FF84
:105A700058B9244801680068401C224A1060142963
:105A80003DDD04202049087039E001211C48FEF763
:105A9000E6FF58B91B4801680068401C194A1060AD
:105AA00014292CDD05201849087028E016480078D4
:105AB000012802D1154908601EE013480078022829
:105AC00002D11249086017E00F480078032802D17C
:105AD0000E49086010E00C480078042802D10B49F8
